:020000040800F2
:1000000000200020590900084D0900084F09000888
:1000100000000000000000000000000000000000E0
:10002000000000000000000000000000510900086E
:1000300000000000000000005309000855090008F6
:10004000A9090008A9090008A9090008A9090008C8
:10005000A9090008A9090008A9090008A9090008B8
:10006000A9090008A9090008A9090008A9090008A8
:10007000A9090008A9090008A9090008A909000898
:10008000A9090008A909000800000000E50500080A
:10009000A9090008A9090008A9090008A909000878
:1000A000A9090008A9090008A9090008A909000868
:1000B000A909000800000000A909000800000000CC
:1000C000002243088B4274D303098B425FD3030A97
:1000D0008B4244D3030B8B4228D3030C8B420DD3AA
:1000E000FF22090212BA030C8B4202D31212090238
:1000F00065D0030B8B4219D300E0090AC30B8B4276
:1001000001D3CB03C01A5241830B8B4201D38B0323
:10011000C01A5241430B8B4201D34B03C01A5241C8
:10012000030B8B4201D30B03C01A5241C30A8B420B
:1001300001D3CB02C01A5241830A8B4201D38B02F6
:10014000C01A5241430A8B4201D34B02C01A52419A
:10015000030A8B4201D30B02C01A5241CDD2C3090C
:100160008B4201D3CB01C01A524183098B4201D388
:100170008B01C01A524143098B4201D34B01C01A73
:10018000524103098B4201D30B01C01A5241C308EB
:100190008B4201D3CB00C01A524183088B4201D35A
:1001A0008B00C01A524143088B4201D34B00C01A46
:1001B0005241411A00D20146524110467047FFE7B2
:1001C00001B5002000F006F802BDC0460029F7D0B6
:1001D00076E770477047C04610B5064C2378002B71
:1001E00007D1054B002B02D0044800E000BF0123DB
:1001F000237010BD0400002000000000F409000876
:10020000044B10B5002B03D00349044800E000BFA5
:1002100010BDC0460000000008000020F4090008DE
:1002200082B0430018180023019304E0C046C04682
:10023000019B01330193019B8342F7D302B07047C6
:1002400070B51420FFF7ECFF0A4CA36980252D023E
:100250002B43A3611420FFF7E3FFA26980231B0651
:100260001343A3611420FFF7DBFFA3691D43A561BE
:1002700070BDC0460008004810B50400454A9169A9
:100280008023DB010B43936143B2002B46DB9022BA
:10029000D205916980231B060B439361630645D504
:1002A0009022D205916980235B010B439361A306E1
:1002B00044D5394A916980239B000B439361E3063F
:1002C00043D5354A916980235B000B439361FFF767
:1002D000B7FF230740D59022D205916980231B02E6
:1002E0000B43936163073FD59022D2059169802328
:1002F0005B010B439361A3073ED5274A9169802395
:100300009B000B439361E4073DD5234A9169802309
:100310005B000B439361FFF793FF10BD9022D20562
:10032000916980231B020B439361B7E79022D205AA
:10033000916980235B050B439361B8E7164A916985
:1003400080239B040B439361B9E7134A916980238F
:100350005B040B439361BAE79022D2059169802335
:100360001B060B439361BDE79022D2059169802360
:100370005B050B439361BEE7074A916980239B04A9
:100380000B439361BFE7044A916980235B040B43ED
:100390009361C0E7000800480004004870B50500FC
:1003A000002403E0FFF768FF0134E4B2285D002871
:1003B000F8D170BD10B50400474A91698023DB0570
:1003C0000B43936143B2002B49DB9022D205916924
:1003D00080231B060B439361630648D59022D20508
:1003E000916980235B010B439361A30647D53B4A88
:1003F000916980239B000B439361E30646D5374AFE
:10040000916980235B000B439361FFF719FF23077A
:1004100043D59022D205916980231B020B4393613F
:10042000630742D59022D205916980235B010B437B
:100430009361A30741D5294A916980239B000B430F
:100440009361E40740D5254A916980235B000B4303
:100450009361FFF7F5FE2248FFF7E2FE10BD902200
:10046000D205916980231B020B439361B4E790226C
:10047000D205916980235B050B439361B5E7174A69
:10048000916980239B040B439361B6E7134A9169FA
:1004900080235B040B439361B7E79022D2059169F7
:1004A00080231B060B439361BAE79022D205916922
:1004B00080235B050B439361BBE7084A9169802366
:1004C0009B040B439361BCE7044A916980235B045E
:1004D0000B439361BDE7C046000800480004004894
:1004E000B80B000010B51B4B5969802292020A43D9
:1004F0005A6159698022D2020A435A61596980229D
:1005000012030A435A619022D20511688223DB0547
:100510000B431360104A1168A023DB020B431360E6
:100520000E4A1168A023DB050B4313600C48FFF74C
:1005300077FE3320FFF73EFF3220FFF73BFF0C2012
:10054000FFF738FF2820FFF735FF0120FFF732FFC4
:1005500010BDC046001002400004004800080048DA
:10056000307500000D4A5169C023DB020B43536113
:100570009023DB051A68FF218A431A60DA688A43F0
:10058000DA60DA6855200243DA60054B1A688A435C
:100590001A601A6802431A607047C0460010024091
:1005A000000400480B4AD16980235B000B43D361F0
:1005B000094B0A4A9A620922DA62DA6801210A437F
:1005C000DA601A688A431A60054B802212031A60A7
:1005D0007047C04600100240002000407FBB000072
:1005E00000E100E0104A136901218B4313610F4BB6
:1005F0001B78002B17D00E4A13780133DBB213702F
:10060000632B10D9130000221A700A4A13780133A1
:10061000DBB213703B2B06D9130000221A70064A76
:100620001378013313707047002000402000002031
:100630002400002025000020260000209023DB0558
:100640001B69DB0710D4294B01221A7028490023AB
:100650000B7028490B7028490B70284B1A702849D9
:100660000B6813430B6070479023DB051B699B07E6
:1006700018D41E4A012313701D4A13701D4A00210D
:1006800011701D4A11701D4A13701E4B1E4A1278BC
:100690001A701E4B1E4A12781A701E4B1E4A127890
:1006A0001A70E0E79023DB051B695B070CD40F4B46
:1006B000012119700E4A002313700E4A11700E4A60
:1006C00013700E4A1370CEE79023DB051B691B07DE
:1006D000C9D4064A00231370054A1370054A1370E3
:1006E000054A01211170054A1370BCE7290000205A
:1006F000280000202700002000000020200000200B
:1007000000200040230000202600002022000020BE
:10071000250000202100002024000020F0B5C6465E
:1007200000B505000C0090461E000A21FFF7C8FC2A
:10073000C7B20A212800FFF749FDCDB23F013D4372
:10074000EDB20A212000FFF7BBFCC7B20A2120004E
:10075000FFF73CFDCCB23F013C43E4B20A214046E6
:10076000FFF7AEFCC7B20A214046FFF72FFDC9B222
:100770003F013943C9B22B09303333700F22154082
:10078000303575703A23B37023093033F370144059
:10079000303434712E2373710B093033B3710A4036
:1007A0003032F2710023337280BCB846F0BD0000D5
:1007B00010B582B04E4B1B78002B0BD14D4B1B78E4
:1007C000002B07D14C4B1B78002B03D14B4B1B78D4
:1007D000002B31D1464B1B78002B0BD0454B1B789F
:1007E000002B07D1444B1B78002B03D1434B1B78C4
:1007F000002B31D03E4B1B78002B0BD03D4B1B7890
:10080000002B07D03C4B1B78002B03D13B4B1B78B4
:10081000002B3AD0364B1B78002B0BD0354B1B7876
:10082000002B07D1344B1B78002B03D0334B1B78A4
:10083000002B43D002B010BD0120FFF7BBFD3048B4
:10084000FFF7ACFDC020FFF7B5FD2E48FFF7A6FD72
:100850002D4B08225A61BDE72C4B1A782C4B197886
:100860002C4B18786B46FFF759FF0120FFF7A2FDCC
:100870002948FFF793FDC020FFF79CFD6846FFF76E
:100880008DFD214B01225A61B4E7244B1A78244B89
:100890001978244B18786B46FFF740FF0120FFF7CB
:1008A00089FD1D48FFF77AFDC020FFF783FD6846EC
:1008B000FFF774FD144B02225A61ABE7134B1A7811
:1008C000134B1978134B18786B46FFF727FF01205D
:1008D000FFF770FD1048FFF761FDC020FFF76AFDCC
:1008E0006846FFF75BFD084B04225A61A2E7C04649
:1008F0002900002028000020270000200000002000
:100900000C0A0008180A000800040048240000200F
:100910002500002026000020280A000821000020D1
:10092000220000202300002010B5074B00225A614E
:10093000FFF7D8FDFFF716FEFFF734FEFFF77EFE48
:10094000FFF736FFFAE7C04600040048FEE7FEE77F
:1009500070477047704770470D488546FFF7FBFFAB
:100960000C480D490D4A002302E0D458C45004330A
:10097000C4188C42F9D30A4A0A4C002301E01360E0
:100980000432A242FBD300F011F8FFF7CDFFFEE7DF
:10099000002000200000002004000020380A000889
:1009A000040000202C000020FEE7000070B50026A7
:1009B0000C4C0D4D641BA410A64209D1002600F07A
:1009C00019F80A4C0A4D641BA410A64205D170BD4B
:1009D000B300EB5898470136EEE7B300EB58984761
:1009E0000136F2E7300A0008300A0008340A00082D
:1009F000300A0008F8B5C046F8BC08BC9E467047EF
:0C0A0000F8B5C046F8BC08BC9E46704724
:100A0C0053746F7020576174636800005072657383
:100A1C0073207377302E2E2E0000000054696D6504
:040A2C0000000000C6
:040A300001020008B7
:040A3400D9010008DC
:040A380001000000B9
:04000005080009598D
:00000001FF
